{
  "contractName": "Casino",
  "abi": [
    {
      "constant": true,
      "inputs": [],
      "name": "numberOfBets",
      "outputs": [
        {
          "name": "",
          "type": "uint256"
        }
      ],
      "payable": false,
      "stateMutability": "view",
      "type": "function"
    },
    {
      "constant": true,
      "inputs": [
        {
          "name": "",
          "type": "address"
        }
      ],
      "name": "playerInfo",
      "outputs": [
        {
          "name": "amountBet",
          "type": "uint256"
        },
        {
          "name": "numberSelected",
          "type": "uint8"
        }
      ],
      "payable": false,
      "stateMutability": "view",
      "type": "function"
    },
    {
      "constant": true,
      "inputs": [],
      "name": "maximumNumberOfBets",
      "outputs": [
        {
          "name": "",
          "type": "uint256"
        }
      ],
      "payable": false,
      "stateMutability": "view",
      "type": "function"
    },
    {
      "constant": true,
      "inputs": [],
      "name": "owner",
      "outputs": [
        {
          "name": "",
          "type": "address"
        }
      ],
      "payable": false,
      "stateMutability": "view",
      "type": "function"
    },
    {
      "constant": true,
      "inputs": [],
      "name": "minimumBet",
      "outputs": [
        {
          "name": "",
          "type": "uint256"
        }
      ],
      "payable": false,
      "stateMutability": "view",
      "type": "function"
    },
    {
      "constant": true,
      "inputs": [
        {
          "name": "",
          "type": "uint256"
        }
      ],
      "name": "players",
      "outputs": [
        {
          "name": "",
          "type": "address"
        }
      ],
      "payable": false,
      "stateMutability": "view",
      "type": "function"
    },
    {
      "constant": true,
      "inputs": [],
      "name": "totalBet",
      "outputs": [
        {
          "name": "",
          "type": "uint256"
        }
      ],
      "payable": false,
      "stateMutability": "view",
      "type": "function"
    },
    {
      "inputs": [
        {
          "name": "_minimumBet",
          "type": "uint256"
        },
        {
          "name": "_maximumPlayers",
          "type": "uint256"
        }
      ],
      "payable": false,
      "stateMutability": "nonpayable",
      "type": "constructor"
    },
    {
      "payable": true,
      "stateMutability": "payable",
      "type": "fallback"
    },
    {
      "constant": false,
      "inputs": [],
      "name": "kill",
      "outputs": [],
      "payable": false,
      "stateMutability": "nonpayable",
      "type": "function"
    },
    {
      "constant": true,
      "inputs": [
        {
          "name": "_player",
          "type": "address"
        }
      ],
      "name": "checkPlayerExists",
      "outputs": [
        {
          "name": "",
          "type": "bool"
        }
      ],
      "payable": false,
      "stateMutability": "view",
      "type": "function"
    },
    {
      "constant": false,
      "inputs": [
        {
          "name": "_numberSelected",
          "type": "uint8"
        }
      ],
      "name": "bet",
      "outputs": [],
      "payable": true,
      "stateMutability": "payable",
      "type": "function"
    }
  ],
  "bytecode": "0x60806040526005805534801561001457600080fd5b50604051604080610bc98339810180604052810190808051906020019092919080519060200190929190505050336000806101000a81548173ffffffffffffffffffffffffffffffffffffffff021916908373ffffffffffffffffffffffffffffffffffffffff16021790555060008214151561009357816002819055505b60018111156100a457806005819055505b5050610b14806100b56000396000f3006080604052600436106100a4576000357c0100000000000000000000000000000000000000000000000000000000900463ffffffff1680632ca8c6d3146100a65780634081d916146100d157806341c0e1b51461012c5780634b114691146101435780635c789c94146101a75780638da5cb5b146101d2578063c38a8afd14610229578063d0821b0e14610254578063f71d96cb14610277578063fe5e1853146102e4575b005b3480156100b257600080fd5b506100bb61030f565b6040518082815260200191505060405180910390f35b3480156100dd57600080fd5b50610112600480360381019080803573ffffffffffffffffffffffffffffffffffffffff169060200190929190505050610315565b604051808215151515815260200191505060405180910390f35b34801561013857600080fd5b506101416103be565b005b34801561014f57600080fd5b50610184600480360381019080803573ffffffffffffffffffffffffffffffffffffffff16906020019092919050505061044f565b604051808381526020018260ff1660ff1681526020019250505060405180910390f35b3480156101b357600080fd5b506101bc610480565b6040518082815260200191505060405180910390f35b3480156101de57600080fd5b506101e7610486565b604051808273ffffffffffffffffffffffffffffffffffffffff1673ffffffffffffffffffffffffffffffffffffffff16815260200191505060405180910390f35b34801561023557600080fd5b5061023e6104ab565b6040518082815260200191505060405180910390f35b610275600480360381019080803560ff1690602001909291905050506104b1565b005b34801561028357600080fd5b506102a260048036038101908080359060200190929190505050610780565b604051808273ffffffffffffffffffffffffffffffffffffffff1673ffffffffffffffffffffffffffffffffffffffff16815260200191505060405180910390f35b3480156102f057600080fd5b506102f96107be565b6040518082815260200191505060405180910390f35b60045481565b600080600090505b6001805490508160ff1610156103b3578273ffffffffffffffffffffffffffffffffffffffff1660018260ff1681548110151561035657fe5b9060005260206000200160009054906101000a900473ffffffffffffffffffffffffffffffffffffffff1673ffffffffffffffffffffffffffffffffffffffff1614156103a657600191506103b8565b808060010191505061031d565b600091505b50919050565b6000809054906101000a900473ffffffffffffffffffffffffffffffffffffffff1673ffffffffffffffffffffffffffffffffffffffff163373ffffffffffffffffffffffffffffffffffffffff16141561044d576000809054906101000a900473ffffffffffffffffffffffffffffffffffffffff1673ffffffffffffffffffffffffffffffffffffffff16ff5b565b60066020528060005260406000206000915090508060000154908060010160009054906101000a900460ff16905082565b60055481565b6000809054906101000a900473ffffffffffffffffffffffffffffffffffffffff1681565b60025481565b6104ba33610315565b15151561052f576040517f08c379a000000000000000000000000000000000000000000000000000000000815260040180806020018281038252601f8152602001807f506c617965722068617320616c726561647920706c616365642061206265740081525060200191505060405180910390fd5b60018160ff16101580156105475750600a8160ff1611155b15156105bb576040517f08c379a000000000000000000000000000000000000000000000000000000000815260040180806020018281038252601e8152602001807f53656c6563746564206e756d6265722073686f756c6420626520312d3130000081525060200191505060405180910390fd5b600254341015151561065b576040517f08c379a00000000000000000000000000000000000000000000000000000000081526004018080602001828103825260368152602001807f506c6163656420626574206973206e6f742067726561746572207468616e206f81526020017f7220657175616c20746f206d696e696d756d206265740000000000000000000081525060400191505060405180910390fd5b60408051908101604052803481526020018260ff16815250600660003373ffffffffffffffffffffffffffffffffffffffff1673ffffffffffffffffffffffffffffffffffffffff1681526020019081526020016000206000820151816000015560208201518160010160006101000a81548160ff021916908360ff16021790555090505060013390806001815401808255809150509060018203906000526020600020016000909192909190916101000a81548173ffffffffffffffffffffffffffffffffffffffff021916908373ffffffffffffffffffffffffffffffffffffffff1602179055505034600360008282540192505081905550600460008154809291906001019190505550600554600454141561077d5761077c6107c4565b5b50565b60018181548110151561078f57fe5b906000526020600020016000915054906101000a900473ffffffffffffffffffffffffffffffffffffffff1681565b60035481565b6000806107cf610a74565b6000806000806107dd610a3b565b965060009550600093505b6001805490508460ff1610156109515760018460ff1681548110151561080a57fe5b9060005260206000200160009054906101000a900473ffffffffffffffffffffffffffffffffffffffff1692508660ff16600660008573ffffffffffffffffffffffffffffffffffffffff1673ffffffffffffffffffffffffffffffffffffffff16815260200190815260200160002060010160009054906101000a900460ff1660ff1614156108e65782858760ff166005811015156108a657fe5b602002019073ffffffffffffffffffffffffffffffffffffffff16908173ffffffffffffffffffffffffffffffffffffffff168152505085806001019650505b600660008473ffffffffffffffffffffffffffffffffffffffff1673ffffffffffffffffffffffffffffffffffffffff1681526020019081526020016000206000808201600090556001820160006101000a81549060ff0219169055505083806001019450506107e8565b8560ff1660035481151561096157fe5b049150600090505b60058160ff161015610a2a57600073ffffffffffffffffffffffffffffffffffffffff16858260ff1660058110151561099e57fe5b602002015173ffffffffffffffffffffffffffffffffffffffff16141515610a1d57848160ff166005811015156109d157fe5b602002015173ffffffffffffffffffffffffffffffffffffffff166108fc839081150290604051600060405180830381858888f19350505050158015610a1b573d6000803e3d6000fd5b505b8080600101915050610969565b610a32610a52565b50505050505050565b60006001600a43811515610a4b57fe5b0601905090565b6000600181610a619190610a97565b5060006003819055506000600481905550565b60a060405190810160405280600590602082028038833980820191505090505090565b815481835581811115610abe57818360005260206000209182019101610abd9190610ac3565b5b505050565b610ae591905b80821115610ae1576000816000905550600101610ac9565b5090565b905600a165627a7a72305820d4e7517f900606fc392e08c520368597562bf9b35a5d7afaf745d6a70b0a81c90029",
  "source": "pragma solidity ^0.4.23;\n\ncontract Casino {\n    address public owner;\n    address[] public players;\n    uint256 public minimumBet;\n    uint256 public totalBet;\n    uint256 public numberOfBets;\n    uint256 public maximumNumberOfBets = 5;\n\n    struct Player {\n        uint256 amountBet;\n        uint8 numberSelected;\n    }\n\n    mapping (address => Player) public playerInfo;\n\n    function() public payable {}\n\n    constructor (uint256 _minimumBet, uint256 _maximumPlayers) public {\n        owner = msg.sender;\n        if (_minimumBet != 0) minimumBet = _minimumBet;\n        if (_maximumPlayers > 1) maximumNumberOfBets = _maximumPlayers;\n    }\n\n    function kill() public {\n        if (msg.sender == owner) selfdestruct(owner);\n    }\n\n    function checkPlayerExists(address _player) public view returns (bool) {\n        for (uint8 i = 0; i < players.length; i++) {\n            if (players[i] == _player) return true;\n        }\n        return false;\n    }\n\n    function _resetData() private {\n        players.length = 0;\n        totalBet = 0;\n        numberOfBets = 0;\n    }\n\n    function _generateNumberWinner() private view returns (uint8) {\n        return uint8(block.number % 10 + 1);  // bad implementation of randomness, just for testing\n    }\n\n    function _rewardWinners() private {\n        uint8 winningNumber = _generateNumberWinner();\n        uint8 winnerCounter = 0;\n        address[5] memory winners;\n\n        for (uint8 x = 0; x < players.length; x++) {\n            address playerAddress = players[x];\n\n            if (playerInfo[playerAddress].numberSelected == winningNumber) {\n                winners[winnerCounter] = playerAddress;\n                winnerCounter++;\n            }\n            delete playerInfo[playerAddress];\n        }\n\n        uint256 winningAmount = totalBet / winnerCounter;\n\n        for (uint8 y = 0; y < winners.length; y++) {\n            if (winners[y] != address(0)) winners[y].transfer(winningAmount);\n        }\n\n        _resetData();\n    } \n\n    function bet(uint8 _numberSelected) public payable {\n        require(!checkPlayerExists(msg.sender), \"Player has already placed a bet\");\n        require(_numberSelected >= 1 && _numberSelected <= 10, \"Selected number should be 1-10\");\n        require(msg.value >= minimumBet, \"Placed bet is not greater than or equal to minimum bet\");\n\n        playerInfo[msg.sender] = Player(msg.value, _numberSelected);\n        players.push(msg.sender);\n        totalBet += msg.value;\n        numberOfBets++;\n\n        if (numberOfBets == maximumNumberOfBets) _rewardWinners();\n    }\n}",
  "sourcePath": "/home/sbenemerito/Desktop/sample-casino-dapp/contracts/Casino.sol",
  "compiler": {
    "name": "solc",
    "version": "0.4.24+commit.e67f0147.Emscripten.clang"
  },
  "schemaVersion": "2.0.1",
  "updatedAt": "2018-10-20T07:12:05.861Z"
}